{
  "_format": "hh-sol-artifact-1",
  "contractName": "ImNotArtNFT",
  "sourceName": "contracts/ImNotArtNFT.sol",
  "abi": [
    {
      "inputs": [
        {
          "internalType": "address",
          "name": "initialOwner",
          "type": "address"
        }
      ],
      "stateMutability": "nonpayable",
      "type": "constructor"
    },
    {
      "inputs": [
        {
          "internalType": "address",
          "name": "sender",
          "type": "address"
        },
        {
          "internalType": "uint256",
          "name": "balance",
          "type": "uint256"
        },
        {
          "internalType": "uint256",
          "name": "needed",
          "type": "uint256"
        },
        {
          "internalType": "uint256",
          "name": "tokenId",
          "type": "uint256"
        }
      ],
      "name": "ERC1155InsufficientBalance",
      "type": "error"
    },
    {
      "inputs": [
        {
          "internalType": "address",
          "name": "approver",
          "type": "address"
        }
      ],
      "name": "ERC1155InvalidApprover",
      "type": "error"
    },
    {
      "inputs": [
        {
          "internalType": "uint256",
          "name": "idsLength",
          "type": "uint256"
        },
        {
          "internalType": "uint256",
          "name": "valuesLength",
          "type": "uint256"
        }
      ],
      "name": "ERC1155InvalidArrayLength",
      "type": "error"
    },
    {
      "inputs": [
        {
          "internalType": "address",
          "name": "operator",
          "type": "address"
        }
      ],
      "name": "ERC1155InvalidOperator",
      "type": "error"
    },
    {
      "inputs": [
        {
          "internalType": "address",
          "name": "receiver",
          "type": "address"
        }
      ],
      "name": "ERC1155InvalidReceiver",
      "type": "error"
    },
    {
      "inputs": [
        {
          "internalType": "address",
          "name": "sender",
          "type": "address"
        }
      ],
      "name": "ERC1155InvalidSender",
      "type": "error"
    },
    {
      "inputs": [
        {
          "internalType": "address",
          "name": "operator",
          "type": "address"
        },
        {
          "internalType": "address",
          "name": "owner",
          "type": "address"
        }
      ],
      "name": "ERC1155MissingApprovalForAll",
      "type": "error"
    },
    {
      "inputs": [
        {
          "internalType": "address",
          "name": "owner",
          "type": "address"
        }
      ],
      "name": "OwnableInvalidOwner",
      "type": "error"
    },
    {
      "inputs": [
        {
          "internalType": "address",
          "name": "account",
          "type": "address"
        }
      ],
      "name": "OwnableUnauthorizedAccount",
      "type": "error"
    },
    {
      "anonymous": false,
      "inputs": [
        {
          "indexed": true,
          "internalType": "address",
          "name": "account",
          "type": "address"
        },
        {
          "indexed": true,
          "internalType": "address",
          "name": "operator",
          "type": "address"
        },
        {
          "indexed": false,
          "internalType": "bool",
          "name": "approved",
          "type": "bool"
        }
      ],
      "name": "ApprovalForAll",
      "type": "event"
    },
    {
      "anonymous": false,
      "inputs": [
        {
          "indexed": true,
          "internalType": "address",
          "name": "previousOwner",
          "type": "address"
        },
        {
          "indexed": true,
          "internalType": "address",
          "name": "newOwner",
          "type": "address"
        }
      ],
      "name": "OwnershipTransferred",
      "type": "event"
    },
    {
      "anonymous": false,
      "inputs": [
        {
          "indexed": true,
          "internalType": "uint256",
          "name": "tokenId",
          "type": "uint256"
        },
        {
          "indexed": true,
          "internalType": "address",
          "name": "artist",
          "type": "address"
        },
        {
          "indexed": false,
          "internalType": "uint256",
          "name": "maxSupply",
          "type": "uint256"
        },
        {
          "indexed": false,
          "internalType": "string",
          "name": "metadataURI",
          "type": "string"
        }
      ],
      "name": "TokenCreated",
      "type": "event"
    },
    {
      "anonymous": false,
      "inputs": [
        {
          "indexed": true,
          "internalType": "uint256",
          "name": "tokenId",
          "type": "uint256"
        },
        {
          "indexed": true,
          "internalType": "address",
          "name": "artist",
          "type": "address"
        },
        {
          "indexed": true,
          "internalType": "address",
          "name": "buyer",
          "type": "address"
        },
        {
          "indexed": false,
          "internalType": "uint256",
          "name": "amount",
          "type": "uint256"
        }
      ],
      "name": "TokenMinted",
      "type": "event"
    },
    {
      "anonymous": false,
      "inputs": [
        {
          "indexed": true,
          "internalType": "address",
          "name": "operator",
          "type": "address"
        },
        {
          "indexed": true,
          "internalType": "address",
          "name": "from",
          "type": "address"
        },
        {
          "indexed": true,
          "internalType": "address",
          "name": "to",
          "type": "address"
        },
        {
          "indexed": false,
          "internalType": "uint256[]",
          "name": "ids",
          "type": "uint256[]"
        },
        {
          "indexed": false,
          "internalType": "uint256[]",
          "name": "values",
          "type": "uint256[]"
        }
      ],
      "name": "TransferBatch",
      "type": "event"
    },
    {
      "anonymous": false,
      "inputs": [
        {
          "indexed": true,
          "internalType": "address",
          "name": "operator",
          "type": "address"
        },
        {
          "indexed": true,
          "internalType": "address",
          "name": "from",
          "type": "address"
        },
        {
          "indexed": true,
          "internalType": "address",
          "name": "to",
          "type": "address"
        },
        {
          "indexed": false,
          "internalType": "uint256",
          "name": "id",
          "type": "uint256"
        },
        {
          "indexed": false,
          "internalType": "uint256",
          "name": "value",
          "type": "uint256"
        }
      ],
      "name": "TransferSingle",
      "type": "event"
    },
    {
      "anonymous": false,
      "inputs": [
        {
          "indexed": false,
          "internalType": "string",
          "name": "value",
          "type": "string"
        },
        {
          "indexed": true,
          "internalType": "uint256",
          "name": "id",
          "type": "uint256"
        }
      ],
      "name": "URI",
      "type": "event"
    },
    {
      "inputs": [
        {
          "internalType": "address",
          "name": "account",
          "type": "address"
        },
        {
          "internalType": "uint256",
          "name": "id",
          "type": "uint256"
        }
      ],
      "name": "balanceOf",
      "outputs": [
        {
          "internalType": "uint256",
          "name": "",
          "type": "uint256"
        }
      ],
      "stateMutability": "view",
      "type": "function"
    },
    {
      "inputs": [
        {
          "internalType": "address[]",
          "name": "accounts",
          "type": "address[]"
        },
        {
          "internalType": "uint256[]",
          "name": "ids",
          "type": "uint256[]"
        }
      ],
      "name": "balanceOfBatch",
      "outputs": [
        {
          "internalType": "uint256[]",
          "name": "",
          "type": "uint256[]"
        }
      ],
      "stateMutability": "view",
      "type": "function"
    },
    {
      "inputs": [
        {
          "internalType": "address",
          "name": "artist",
          "type": "address"
        },
        {
          "internalType": "uint256",
          "name": "maxSupply",
          "type": "uint256"
        },
        {
          "internalType": "string",
          "name": "metadataURI",
          "type": "string"
        }
      ],
      "name": "createToken",
      "outputs": [
        {
          "internalType": "uint256",
          "name": "",
          "type": "uint256"
        }
      ],
      "stateMutability": "nonpayable",
      "type": "function"
    },
    {
      "inputs": [
        {
          "internalType": "uint256",
          "name": "tokenId",
          "type": "uint256"
        },
        {
          "internalType": "uint256",
          "name": "salePrice",
          "type": "uint256"
        }
      ],
      "name": "getRoyaltyInfo",
      "outputs": [
        {
          "internalType": "address",
          "name": "receiver",
          "type": "address"
        },
        {
          "internalType": "uint256",
          "name": "royaltyAmount",
          "type": "uint256"
        }
      ],
      "stateMutability": "view",
      "type": "function"
    },
    {
      "inputs": [
        {
          "internalType": "uint256",
          "name": "tokenId",
          "type": "uint256"
        }
      ],
      "name": "getTokenInfo",
      "outputs": [
        {
          "components": [
            {
              "internalType": "address",
              "name": "artist",
              "type": "address"
            },
            {
              "internalType": "uint256",
              "name": "maxSupply",
              "type": "uint256"
            },
            {
              "internalType": "uint256",
              "name": "currentSupply",
              "type": "uint256"
            },
            {
              "internalType": "uint256",
              "name": "royaltyPercentage",
              "type": "uint256"
            },
            {
              "internalType": "string",
              "name": "metadataURI",
              "type": "string"
            }
          ],
          "internalType": "struct ImNotArtNFT.TokenInfo",
          "name": "",
          "type": "tuple"
        }
      ],
      "stateMutability": "view",
      "type": "function"
    },
    {
      "inputs": [
        {
          "internalType": "address",
          "name": "account",
          "type": "address"
        },
        {
          "internalType": "address",
          "name": "operator",
          "type": "address"
        }
      ],
      "name": "isApprovedForAll",
      "outputs": [
        {
          "internalType": "bool",
          "name": "",
          "type": "bool"
        }
      ],
      "stateMutability": "view",
      "type": "function"
    },
    {
      "inputs": [
        {
          "internalType": "uint256",
          "name": "tokenId",
          "type": "uint256"
        },
        {
          "internalType": "address",
          "name": "buyer",
          "type": "address"
        },
        {
          "internalType": "uint256",
          "name": "amount",
          "type": "uint256"
        }
      ],
      "name": "mintToken",
      "outputs": [],
      "stateMutability": "nonpayable",
      "type": "function"
    },
    {
      "inputs": [],
      "name": "owner",
      "outputs": [
        {
          "internalType": "address",
          "name": "",
          "type": "address"
        }
      ],
      "stateMutability": "view",
      "type": "function"
    },
    {
      "inputs": [],
      "name": "renounceOwnership",
      "outputs": [],
      "stateMutability": "nonpayable",
      "type": "function"
    },
    {
      "inputs": [
        {
          "internalType": "address",
          "name": "from",
          "type": "address"
        },
        {
          "internalType": "address",
          "name": "to",
          "type": "address"
        },
        {
          "internalType": "uint256[]",
          "name": "ids",
          "type": "uint256[]"
        },
        {
          "internalType": "uint256[]",
          "name": "values",
          "type": "uint256[]"
        },
        {
          "internalType": "bytes",
          "name": "data",
          "type": "bytes"
        }
      ],
      "name": "safeBatchTransferFrom",
      "outputs": [],
      "stateMutability": "nonpayable",
      "type": "function"
    },
    {
      "inputs": [
        {
          "internalType": "address",
          "name": "from",
          "type": "address"
        },
        {
          "internalType": "address",
          "name": "to",
          "type": "address"
        },
        {
          "internalType": "uint256",
          "name": "id",
          "type": "uint256"
        },
        {
          "internalType": "uint256",
          "name": "value",
          "type": "uint256"
        },
        {
          "internalType": "bytes",
          "name": "data",
          "type": "bytes"
        }
      ],
      "name": "safeTransferFrom",
      "outputs": [],
      "stateMutability": "nonpayable",
      "type": "function"
    },
    {
      "inputs": [
        {
          "internalType": "address",
          "name": "operator",
          "type": "address"
        },
        {
          "internalType": "bool",
          "name": "approved",
          "type": "bool"
        }
      ],
      "name": "setApprovalForAll",
      "outputs": [],
      "stateMutability": "nonpayable",
      "type": "function"
    },
    {
      "inputs": [
        {
          "internalType": "bytes4",
          "name": "interfaceId",
          "type": "bytes4"
        }
      ],
      "name": "supportsInterface",
      "outputs": [
        {
          "internalType": "bool",
          "name": "",
          "type": "bool"
        }
      ],
      "stateMutability": "view",
      "type": "function"
    },
    {
      "inputs": [
        {
          "internalType": "uint256",
          "name": "",
          "type": "uint256"
        }
      ],
      "name": "tokenInfo",
      "outputs": [
        {
          "internalType": "address",
          "name": "artist",
          "type": "address"
        },
        {
          "internalType": "uint256",
          "name": "maxSupply",
          "type": "uint256"
        },
        {
          "internalType": "uint256",
          "name": "currentSupply",
          "type": "uint256"
        },
        {
          "internalType": "uint256",
          "name": "royaltyPercentage",
          "type": "uint256"
        },
        {
          "internalType": "string",
          "name": "metadataURI",
          "type": "string"
        }
      ],
      "stateMutability": "view",
      "type": "function"
    },
    {
      "inputs": [
        {
          "internalType": "address",
          "name": "newOwner",
          "type": "address"
        }
      ],
      "name": "transferOwnership",
      "outputs": [],
      "stateMutability": "nonpayable",
      "type": "function"
    },
    {
      "inputs": [
        {
          "internalType": "uint256",
          "name": "tokenId",
          "type": "uint256"
        }
      ],
      "name": "uri",
      "outputs": [
        {
          "internalType": "string",
          "name": "",
          "type": "string"
        }
      ],
      "stateMutability": "view",
      "type": "function"
    }
  ],
  "bytecode": "0x60806040523480156200001157600080fd5b5060405162001ee438038062001ee4833981016040819052620000349162000106565b8060405180606001604052806026815260200162001ebe602691396200005a81620000a2565b506001600160a01b0381166200008a57604051631e4fbdf760e01b81526000600482015260240160405180910390fd5b6200009581620000b4565b50506001600455620002ab565b6002620000b08282620001df565b5050565b600380546001600160a01b038381166001600160a01b0319831681179093556040519116919082907f8be0079c531659141344cd1fd0a4f28419497f9722a3daafe3b4186f6b6457e090600090a35050565b6000602082840312156200011957600080fd5b81516001600160a01b03811681146200013157600080fd5b9392505050565b634e487b7160e01b600052604160045260246000fd5b600181811c908216806200016357607f821691505b6020821081036200018457634e487b7160e01b600052602260045260246000fd5b50919050565b601f821115620001da576000816000526020600020601f850160051c81016020861015620001b55750805b601f850160051c820191505b81811015620001d657828155600101620001c1565b5050505b505050565b81516001600160401b03811115620001fb57620001fb62000138565b62000213816200020c84546200014e565b846200018a565b602080601f8311600181146200024b5760008415620002325750858301515b600019600386901b1c1916600185901b178555620001d6565b600085815260208120601f198616915b828110156200027c578886015182559484019460019091019084016200025b565b50858210156200029b5787850151600019600388901b60f8161c191681555b5050505050600190811b01905550565b611c0380620002bb6000396000f3fe608060405234801561001057600080fd5b50600436106100ff5760003560e01c80638c7a63ae11610097578063cc33c87511610066578063cc33c87514610250578063e985e9c514610274578063f242432a14610287578063f2fde38b1461029a57600080fd5b80638c7a63ae146101d05780638da5cb5b146101f0578063a22cb4651461020b578063c7ed115e1461021e57600080fd5b80634e1273f4116100d35780634e1273f4146101825780635c21bc2c146101a2578063715018a6146101b55780637811a5bf146101bd57600080fd5b8062fdd58e1461010457806301ffc9a71461012a5780630e89341c1461014d5780632eb2c2d61461016d575b600080fd5b6101176101123660046112a8565b6102ad565b6040519081526020015b60405180910390f35b61013d6101383660046112e8565b6102d5565b6040519015158152602001610121565b61016061015b36600461130c565b610325565b604051610121919061136b565b61018061017b3660046114d0565b610464565b005b61019561019036600461157a565b6104cb565b6040516101219190611676565b6101176101b0366004611689565b610598565b61018061068a565b6101806101cb3660046116f4565b61069e565b6101e36101de36600461130c565b6107b4565b6040516101219190611729565b6003546040516001600160a01b039091168152602001610121565b61018061021936600461177c565b6108d9565b61023161022c3660046117b8565b6108e8565b604080516001600160a01b039093168352602083019190915201610121565b61026361025e36600461130c565b610a23565b6040516101219594939291906117da565b61013d610282366004611818565b610ae6565b61018061029536600461184b565b610b14565b6101806102a83660046118b0565b610b73565b6000818152602081815260408083206001600160a01b03861684529091529020545b92915050565b60006001600160e01b03198216636cdb3d1360e11b148061030657506001600160e01b031982166303a24d0760e21b145b806102cf57506301ffc9a760e01b6001600160e01b03198316146102cf565b60606000600560008481526020019081526020016000206040518060a00160405290816000820160009054906101000a90046001600160a01b03166001600160a01b03166001600160a01b031681526020016001820154815260200160028201548152602001600382015481526020016004820180546103a4906118cb565b80601f01602080910402602001604051908101604052809291908181526020018280546103d0906118cb565b801561041d5780601f106103f25761010080835404028352916020019161041d565b820191906000526020600020905b81548152906001019060200180831161040057829003601f168201915b5050509190925250508151919250506001600160a01b031661045a5760405162461bcd60e51b815260040161045190611905565b60405180910390fd5b6080015192915050565b336001600160a01b038616811480159061048557506104838682610ae6565b155b156104b65760405163711bec9160e11b81526001600160a01b03808316600483015287166024820152604401610451565b6104c38686868686610bb1565b505050505050565b606081518351146104fc5781518351604051635b05999160e01b815260048101929092526024820152604401610451565b6000835167ffffffffffffffff8111156105185761051861137e565b604051908082528060200260200182016040528015610541578160200160208202803683370190505b50905060005b84518110156105905760208082028601015161056b906020808402870101516102ad565b82828151811061057d5761057d611933565b6020908102919091010152600101610547565b509392505050565b60006105a2610c18565b60048054600091826105b38361195f565b909155506040805160a0810182526001600160a01b038881168252602080830189815260008486018181526103e860608701908152608087018c8152898452600590955296909120855181546001600160a01b03191695169490941784559051600184015551600283015592516003820155915192935091600482019061063a90826119c5565b50905050846001600160a01b0316817f7775d6ac27837184534d17b6cdcdcc82f564fa44d02ec9e6a2efa2aee69fe581868660405161067a929190611a85565b60405180910390a3949350505050565b610692610c18565b61069c6000610c45565b565b6106a6610c18565b600083815260056020526040902080546001600160a01b03166106db5760405162461bcd60e51b815260040161045190611905565b80600101548282600201546106f09190611a9e565b11156107335760405162461bcd60e51b815260206004820152601260248201527145786365656473206d617820737570706c7960701b6044820152606401610451565b818160020160008282546107479190611a9e565b9250508190555061076983858460405180602001604052806000815250610c97565b80546040518381526001600160a01b0385811692169086907ff1ab99b5fe5061a3dd65ac4d17ce222eb14b2a2c789e0f523645beb2daa250059060200160405180910390a450505050565b6107ef6040518060a0016040528060006001600160a01b03168152602001600081526020016000815260200160008152602001606081525090565b600082815260056020908152604091829020825160a08101845281546001600160a01b0316815260018201549281019290925260028101549282019290925260038201546060820152600482018054919291608084019190610850906118cb565b80601f016020809104026020016040519081016040528092919081815260200182805461087c906118cb565b80156108c95780601f1061089e576101008083540402835291602001916108c9565b820191906000526020600020905b8154815290600101906020018083116108ac57829003601f168201915b5050505050815250509050919050565b6108e4338383610cf4565b5050565b6000828152600560209081526040808320815160a08101835281546001600160a01b0316815260018201549381019390935260028101549183019190915260038101546060830152600481018054849384939092909160808401919061094d906118cb565b80601f0160208091040260200160405190810160405280929190818152602001828054610979906118cb565b80156109c65780601f1061099b576101008083540402835291602001916109c6565b820191906000526020600020905b8154815290600101906020018083116109a957829003601f168201915b5050509190925250508151919250506001600160a01b03166109fa5760405162461bcd60e51b815260040161045190611905565b612710816060015185610a0d9190611ab1565b610a179190611ac8565b90519590945092505050565b600560205260009081526040902080546001820154600283015460038401546004850180546001600160a01b0390951695939492939192610a63906118cb565b80601f0160208091040260200160405190810160405280929190818152602001828054610a8f906118cb565b8015610adc5780601f10610ab157610100808354040283529160200191610adc565b820191906000526020600020905b815481529060010190602001808311610abf57829003601f168201915b5050505050905085565b6001600160a01b03918216600090815260016020908152604080832093909416825291909152205460ff1690565b336001600160a01b0386168114801590610b355750610b338682610ae6565b155b15610b665760405163711bec9160e11b81526001600160a01b03808316600483015287166024820152604401610451565b6104c38686868686610d8a565b610b7b610c18565b6001600160a01b038116610ba557604051631e4fbdf760e01b815260006004820152602401610451565b610bae81610c45565b50565b6001600160a01b038416610bdb57604051632bfa23e760e11b815260006004820152602401610451565b6001600160a01b038516610c0457604051626a0d4560e21b815260006004820152602401610451565b610c118585858585610e18565b5050505050565b6003546001600160a01b0316331461069c5760405163118cdaa760e01b8152336004820152602401610451565b600380546001600160a01b038381166001600160a01b0319831681179093556040519116919082907f8be0079c531659141344cd1fd0a4f28419497f9722a3daafe3b4186f6b6457e090600090a35050565b6001600160a01b038416610cc157604051632bfa23e760e11b815260006004820152602401610451565b604080516001808252602082018690528183019081526060820185905260808201909252906104c3600087848487610e18565b6001600160a01b038216610d1d5760405162ced3e160e81b815260006004820152602401610451565b6001600160a01b03838116600081815260016020908152604080832094871680845294825291829020805460ff191686151590811790915591519182527f17307eab39ab6107e8899845ad3d59bd9653f200f220920489ca2b5937696c31910160405180910390a3505050565b6001600160a01b038416610db457604051632bfa23e760e11b815260006004820152602401610451565b6001600160a01b038516610ddd57604051626a0d4560e21b815260006004820152602401610451565b60408051600180825260208201869052818301908152606082018590526080820190925290610e0f8787848487610e18565b50505050505050565b610e2485858585610e6b565b6001600160a01b03841615610c115782513390600103610e5d5760208481015190840151610e5683898985858961107f565b50506104c3565b6104c38187878787876111a3565b8051825114610e9a5781518151604051635b05999160e01b815260048101929092526024820152604401610451565b3360005b8351811015610fa0576020818102858101820151908501909101516001600160a01b03881615610f51576000828152602081815260408083206001600160a01b038c16845290915290205481811015610f2a576040516303dee4c560e01b81526001600160a01b038a166004820152602481018290526044810183905260648101849052608401610451565b6000838152602081815260408083206001600160a01b038d16845290915290209082900390555b6001600160a01b03871615610f96576000828152602081815260408083206001600160a01b038b16845290915281208054839290610f90908490611a9e565b90915550505b5050600101610e9e565b5082516001036110215760208301516000906020840151909150856001600160a01b0316876001600160a01b0316846001600160a01b03167fc3d58168c5ae7397731d063d5bbf3d657854427343f4c083240f7aacaa2d0f628585604051611012929190918252602082015260400190565b60405180910390a45050610c11565b836001600160a01b0316856001600160a01b0316826001600160a01b03167f4a39dc06d4c0dbc64b70af90fd698a233a518aa5d07e595d983b8c0526c8f7fb8686604051611070929190611aea565b60405180910390a45050505050565b6001600160a01b0384163b156104c35760405163f23a6e6160e01b81526001600160a01b0385169063f23a6e61906110c39089908990889088908890600401611b18565b6020604051808303816000875af19250505080156110fe575060408051601f3d908101601f191682019092526110fb91810190611b52565b60015b611167573d80801561112c576040519150601f19603f3d011682016040523d82523d6000602084013e611131565b606091505b50805160000361115f57604051632bfa23e760e11b81526001600160a01b0386166004820152602401610451565b805160208201fd5b6001600160e01b0319811663f23a6e6160e01b14610e0f57604051632bfa23e760e11b81526001600160a01b0386166004820152602401610451565b6001600160a01b0384163b156104c35760405163bc197c8160e01b81526001600160a01b0385169063bc197c81906111e79089908990889088908890600401611b6f565b6020604051808303816000875af1925050508015611222575060408051601f3d908101601f1916820190925261121f91810190611b52565b60015b611250573d80801561112c576040519150601f19603f3d011682016040523d82523d6000602084013e611131565b6001600160e01b0319811663bc197c8160e01b14610e0f57604051632bfa23e760e11b81526001600160a01b0386166004820152602401610451565b80356001600160a01b03811681146112a357600080fd5b919050565b600080604083850312156112bb57600080fd5b6112c48361128c565b946020939093013593505050565b6001600160e01b031981168114610bae57600080fd5b6000602082840312156112fa57600080fd5b8135611305816112d2565b9392505050565b60006020828403121561131e57600080fd5b5035919050565b6000815180845260005b8181101561134b5760208185018101518683018201520161132f565b506000602082860101526020601f19601f83011685010191505092915050565b6020815260006113056020830184611325565b634e487b7160e01b600052604160045260246000fd5b604051601f8201601f1916810167ffffffffffffffff811182821017156113bd576113bd61137e565b604052919050565b600067ffffffffffffffff8211156113df576113df61137e565b5060051b60200190565b600082601f8301126113fa57600080fd5b8135602061140f61140a836113c5565b611394565b8083825260208201915060208460051b87010193508684111561143157600080fd5b602086015b8481101561144d5780358352918301918301611436565b509695505050505050565b600067ffffffffffffffff8311156114725761147261137e565b611485601f8401601f1916602001611394565b905082815283838301111561149957600080fd5b828260208301376000602084830101529392505050565b600082601f8301126114c157600080fd5b61130583833560208501611458565b600080600080600060a086880312156114e857600080fd5b6114f18661128c565b94506114ff6020870161128c565b9350604086013567ffffffffffffffff8082111561151c57600080fd5b61152889838a016113e9565b9450606088013591508082111561153e57600080fd5b61154a89838a016113e9565b9350608088013591508082111561156057600080fd5b5061156d888289016114b0565b9150509295509295909350565b6000806040838503121561158d57600080fd5b823567ffffffffffffffff808211156115a557600080fd5b818501915085601f8301126115b957600080fd5b813560206115c961140a836113c5565b82815260059290921b840181019181810190898411156115e857600080fd5b948201945b8386101561160d576115fe8661128c565b825294820194908201906115ed565b9650508601359250508082111561162357600080fd5b50611630858286016113e9565b9150509250929050565b60008151808452602080850194506020840160005b8381101561166b5781518752958201959082019060010161164f565b509495945050505050565b602081526000611305602083018461163a565b60008060006060848603121561169e57600080fd5b6116a78461128c565b925060208401359150604084013567ffffffffffffffff8111156116ca57600080fd5b8401601f810186136116db57600080fd5b6116ea86823560208401611458565b9150509250925092565b60008060006060848603121561170957600080fd5b833592506117196020850161128c565b9150604084013590509250925092565b6020815260018060a01b0382511660208201526020820151604082015260408201516060820152606082015160808201526000608083015160a08084015261177460c0840182611325565b949350505050565b6000806040838503121561178f57600080fd5b6117988361128c565b9150602083013580151581146117ad57600080fd5b809150509250929050565b600080604083850312156117cb57600080fd5b50508035926020909101359150565b60018060a01b038616815284602082015283604082015282606082015260a06080820152600061180d60a0830184611325565b979650505050505050565b6000806040838503121561182b57600080fd5b6118348361128c565b91506118426020840161128c565b90509250929050565b600080600080600060a0868803121561186357600080fd5b61186c8661128c565b945061187a6020870161128c565b93506040860135925060608601359150608086013567ffffffffffffffff8111156118a457600080fd5b61156d888289016114b0565b6000602082840312156118c257600080fd5b6113058261128c565b600181811c908216806118df57607f821691505b6020821081036118ff57634e487b7160e01b600052602260045260246000fd5b50919050565b602080825260149082015273151bdad95b88191bd95cc81b9bdd08195e1a5cdd60621b604082015260600190565b634e487b7160e01b600052603260045260246000fd5b634e487b7160e01b600052601160045260246000fd5b60006001820161197157611971611949565b5060010190565b601f8211156119c0576000816000526020600020601f850160051c810160208610156119a15750805b601f850160051c820191505b818110156104c3578281556001016119ad565b505050565b815167ffffffffffffffff8111156119df576119df61137e565b6119f3816119ed84546118cb565b84611978565b602080601f831160018114611a285760008415611a105750858301515b600019600386901b1c1916600185901b1785556104c3565b600085815260208120601f198616915b82811015611a5757888601518255948401946001909101908401611a38565b5085821015611a755787850151600019600388901b60f8161c191681555b5050505050600190811b01905550565b8281526040602082015260006117746040830184611325565b808201808211156102cf576102cf611949565b80820281158282048414176102cf576102cf611949565b600082611ae557634e487b7160e01b600052601260045260246000fd5b500490565b604081526000611afd604083018561163a565b8281036020840152611b0f818561163a565b95945050505050565b6001600160a01b03868116825285166020820152604081018490526060810183905260a06080820181905260009061180d90830184611325565b600060208284031215611b6457600080fd5b8151611305816112d2565b6001600160a01b0386811682528516602082015260a060408201819052600090611b9b9083018661163a565b8281036060840152611bad818661163a565b90508281036080840152611bc18185611325565b9897505050505050505056fea26469706673582212201df30ae4f537edf871874da79521a781c532dbc1fad7ce895e1919633ba7bb9664736f6c6343000818003368747470733a2f2f696d6e6f746172742e636f6d2f6170692f6d657461646174612f7b69647d",
  "linkReferences": {},
  "deployedLinkReferences": {}
}